S02A0000436F756E742066726F6D283120746F20313529207573696E67206F6E6520377365672E73726563D4
S11300000C942A000C9447000C9447000C9447006D
S11300100C9447000C9447000C9447000C94470040
S11300200C9447000C9447000C9447000C94470030
S11300300C9447000C9447000C9447000C94470020
S11300400C9447000C9447000C9447000C94470010
S11300500C94470011241FBECFE5D8E0DEBFCDBF0E
S113006010E0A0E6B0E0E2E7F9E002C005900D92EE
S1130070A637B107D9F710E0A6E7B0E001C01D929A
S1130080AA37B107E1F70E9449000C94B7040C9415
S113009000006091760070917700809178009091D3
S11300A079000E945B04609160007091610080910E
S11300B06200909163000E945B04C0E0D0E0609114
S11300C076007091770080917800909179004C2FA0
S11300D00E94A004609160007091610080916200B0
S11300E0909163004C2F0E94A0048FEF99E6A8E141
S11300F081509040A040E1F700C00000CF5FC231C2
S1130100F0F2CD2FDCCF843008F091C0683008F0D5
S113011090C0413009F042C08130B1F0813030F0FC
S1130120823001F1833009F086C02AC02AB381E00D
S113013090E0AC0102C0440F551F6A95E2F7BA0182
S1130140622B6ABB81E0089527B381E090E0AC01A3
S113015002C0440F551F6A95E2F7BA01622B67BBD0
S113016081E0089524B381E090E0AC0102C0440F23
S1130170551F6A95E2F7BA01622B64BB81E00895CA
S113018021B381E090E0AC0102C0440F551F6A9591
S1130190E2F7BA01622B61BB81E00895442309F0C0
S11301A04CC08130B9F0813030F0823011F18330AD
S11301B009F045C02DC02AB381E090E0AC0102C033
S11301C0440F551F6A95E2F7BA01609562236ABB32
S11301D081E0089527B381E090E0AC0102C0440FB0
S11301E0551F6A95E2F7BA016095622367BB81E007
S11301F0089524B381E090E0AC0102C0440F551F80
S11302006A95E2F7BA016095622364BB81E00895C0
S113021021B381E090E0AC0102C0440F551F6A9500
S1130220E2F7BA016095622361BB81E0089580E042
S1130230089580E0089581E0089580E0089581E0C4
S11302400895843008F091C0683008F090C04130BF
S113025009F042C08130B1F0813030F0823001F1D8
S1130260833009F086C02AC02BB381E090E0AC0152
S113027002C0440F551F6A95E2F7BA01622B6BBBAB
S113028081E0089528B381E090E0AC0102C0440FFE
S1130290551F6A95E2F7BA01622B68BB81E00895A5
S11302A025B381E090E0AC0102C0440F551F6A956C
S11302B0E2F7BA01622B65BB81E0089522B381E0C5
S11302C090E0AC0102C0440F551F6A95E2F7BA01F1
S11302D0622B62BB81E00895442309F04CC0813055
S11302E0B9F0813030F0823011F1833009F045C02B
S11302F02DC02BB381E090E0AC0102C0440F551F28
S11303006A95E2F7BA01609562236BBB81E00895B8
S113031028B381E090E0AC0102C0440F551F6A95F8
S1130320E2F7BA016095622368BB81E0089525B3C2
S113033081E090E0AC0102C0440F551F6A95E2F7DA
S1130340BA016095622365BB81E0089522B381E020
S113035090E0AC0102C0440F551F6A95E2F7BA0160
S11303606095622362BB81E0089580E0089580E097
S1130370089581E0089580E0089581E0089584302F
S113038008F065C0683008F064C08130F1F0813055
S113039030F0823081F1833009F05DC042C089B30E
S11303A021E030E0062E02C0220F331F0A94E2F748
S11303B090E0822393239C0102C0359527956A958A
S11303C0E2F7FA01208381E0089586B321E030E06A
S11303D0062E02C0220F331F0A94E2F790E0822314
S11303E093239C0102C0359527956A95E2F7FA019B
S11303F0208381E0089583B321E030E0062E02C01B
S1130400220F331F0A94E2F790E0822393239C0186
S113041002C0359527956A95E2F7FA01208381E0B9
S1130420089580B321E030E0062E02C0220F331F6E
S11304300A94E2F790E0822393239C0102C035954D
S113044027956A95E2F7FA01208381E0089580E018
S1130450089580E0089581E00895683008F042C06E
S11304608130B1F0813030F0823001F1833009F015
S11304703BC02AC02BB381E090E0AC0102C0440F22
S1130480551F6A95E2F7BA0162276BBB81E00895B4
S113049028B381E090E0AC0102C0440F551F6A9577
S11304A0E2F7BA01622768BB81E0089525B381E0D1
S11304B090E0AC0102C0440F551F6A95E2F7BA01FF
S11304C0622765BB81E0089522B381E090E0AC012E
S11304D002C0440F551F6A95E2F7BA01622762BB56
S11304E081E0089580E0089581E00895843008F063
S11304F0A8C0683008F0A7C0813081F1813038F09D
S1130500823009F452C0833009F09FC075C0413075
S1130510B1F480B78B7F80BF2AB381E090E0AC0157
S113052002C0440F551F6A95E2F7BA01842F8095E3
S113053082238ABB8BB3682B6BBB81E008952BB3FA
S113054081E090E0AC0102C0440F551F6A95E2F7C8
S1130550BA01609562236BBB81E008954130B1F428
S113056080B78B7F80BF27B381E090E0AC0102C0ED
S1130570440F551F6A95E2F7BA01842F80958223B0
S113058087BB88B3682B68BB81E0089528B381E0FA
S113059090E0AC0102C0440F551F6A95E2F7BA011E
S11305A06095622368BB81E008954130B1F480B75F
S11305B08B7F80BF84B321E030E0A90102C0440FE7
S11305C0551F6A95E2F7BA01942F9095892384BB4D
S11305D085B3682B65BB81E0089525B381E090E085
S11305E0AC0102C0440F551F6A95E2F7BA01609549
S11305F0622365BB81E008954130A1F480B78B7F0D
S113060080BF21B381E090E002C0880F991F6A95F2
S1130610E2F7982F9095922391BB92B3892B82BBDA
S113062081E0089522B381E090E0AC0102C0440F60
S1130630551F6A95E2F7BA016095622362BB81E0B7
S1130640089580E0089580E0089581E0089584305D
S1130650A8F4813051F0813028F0823049F08330A1
S113066079F409C06ABB81E0089567BB81E008950D
S113067064BB81E0089561BB81E0089580E0089542
S113068080E008958430A8F4813051F0813028F05E
S1130690823049F0833079F409C06BBB81E008955E
S11306A068BB81E0089565BB81E0089562BB81E089
S11306B0089580E0089580E008958430E8F481305E
S11306C061F0813028F0823069F08330B9F40FC0D2
S11306D08BB380958BBB81E0089588B3809588BBEC
S11306E081E0089585B3809585BB81E0089582B348
S11306F0809582BB81E0089580E0089581E00895AB
S11307008430E8F4813061F0813028F0823069F07F
S11307108330B9F40FC089B3FB01808381E008956D
S113072086B3FB01808381E0089583B3FB0180835A
S113073081E0089580B3FB01808381E0089580E027
S1130740089580E00895843058F56295607F813083
S113075079F0813028F0823099F0833019F518C08F
S11307608BB38F708BBB8BB3682B6BBB81E008950D
S113077088B38F7088BB88B3682B68BB81E0089509
S113078085B38F7085BB85B3682B65BB81E0089505
S113079082B38F7082BB82B3682B62BB81E0089501
S11307A080E0089581E00895843050F56F708130C1
S11307B079F0813028F0823099F0833019F518C02F
S11307C08BB3807F8BBB8BB3682B6BBB81E00895AD
S11307D088B3807F88BB88B3682B68BB81E00895A9
S11307E085B3807F85BB85B3682B65BB81E00895A5
S11307F082B3807F82BB82B3682B62BB81E00895A1
S113080080E0089581E00895CF93DF9300D00F92A4
S1130810CDB7DEB7962F6983672F7A838B83892FB1
S113082041E00E9483000F900F900F90DF91CF91D1
S11308300895CF93DF9300D00F92CDB7DEB7962FF4
S11308406983672F7A838B83813021F4892F40E079
S11308500E9421010F900F900F90DF91CF91089586
S1130860CF93DF9300D00F92CDB7DEB7962F698375
S1130870672F7A838B83813021F4892F41E00E9492
S113088021010F900F900F90DF91CF910895CF9396
S1130890DF9300D00F92CDB7DEB7962F6983672F11
S11308A07A838B83892F0E942D020F900F900F90D3
S11308B0DF91CF910895872F6FEF0E94270308954A
S11308C0CF93DF93D72FC92F662359F4872F692F2E
S11308D041E00E9483008D2F6C2F40E00E94210193
S11308E00CC0613051F4872F692F41E00E948300CE
S11308F08D2F6C2F41E00E942101DF91CF9108954B
S1130900CF93DF93D72FC92F662359F4872F692FED
S113091040E00E9483008D2F6C2F41E00E94210152
S11309200CC0613051F4872F692F41E00E9483008D
S11309308D2F6C2F40E00E942101DF91CF9108950B
S1130940662349F4E4E6F0E0E40FF11D872F6081AB
S11309500E9442030895613049F4E4E6F0E0E40FB4
S1130960F11D60816095872F0E9442030895F894D9
S1050970FFCFB3
S1130972010101003F065B4F666D7D077F6F77FCC7
S1090982395EF9716F00FB
S9030000FC
